:020000040800F2
:10000000000002201D2800086D2800086D28000847
:100010006D2800086D2800086D2800080000000009
:100020000000000000000000000000006D28000833
:100030006D280008000000006D280008C75C00085B
:100040006D2800086D2800086D2800086D2800083C
:100050006D2800086D2800085185000857850008A4
:100060005D85000863850008698500086D28000823
:100070006D2800086D2800086D2800086D2800080C
:100080006D2800086D2800086D2800086D280008FC
:100090006D2800086D2800086D2800086F8500088D
:1000A0004181000879800008558100089D80000882
:1000B000B1800008C5800008D98000081D650008CF
:1000C0002965000835650008416500086D280008AD
:1000D0006D280008A5660008BD660008D566000802
:1000E00085850008655F0008497900086981000876
:1000F000298100087D8100083D8100086D280008E5
:100100006D2800086D280008ED8000086D280008A3
:10011000F1660008096700080181000815810008E0
:100120006D2800086D2800086D2800086D2800085B
:100130006D28000800000000000000006D28000885
:100140006D2800086D2800086D2800083D7900081A
:100150006D2800086D2800086D2800082167000838
:100160004D650008596500086D2800086D280008D5
:100170006D2800086D2800086D28000800000000A8
:10018000000000006D2800080000000000000000D2
:100190006D28000800000000000000006D28000825
:1001A0000000000000000000000000006D280008B2
:1001B0006D2800086D2800086D2800086D280008CB
:0401C0006D2800089E
:1001C400034613F8012B002AFBD1181A0138704793
:1001D40081F0004102E000BF83F0004330B54FEAF4
:1001E40041044FEA430594EA050F08BF90EA020F61
:1001F4001FBF54EA000C55EA020C7FEA645C7FEAF4
:10020400655C00F0E2804FEA5454D4EB5555B8BF16
:100214006D420CDD2C4480EA020281EA030382EA87
:10022400000083EA010180EA020281EA0303362D19
:1002340088BF30BD11F0004F4FEA01314FF4801CEC
:100244004CEA113102D0404261EB410113F0004FFE
:100254004FEA03334CEA133302D0524263EB4303B5
:1002640094EA050F00F0A780A4F10104D5F1200E53
:100274000DDB02FA0EFC22FA05F2801841F10001AE
:1002840003FA0EF2801843FA05F359410EE0A5F182
:1002940020050EF1200E012A03FA0EFC28BF4CF0B3
:1002A400020C43FA05F3C01851EBE37101F0004569
:1002B40007D54FF0000EDCF1000C7EEB00006EEB76
:1002C4000101B1F5801F1BD3B1F5001F0CD3490800
:1002D4005FEA30004FEA3C0C04F101044FEA445257
:1002E40012F5800F80F09A80BCF1004F08BF5FEADE
:1002F400500C50F1000041EB045141EA050130BDBE
:100304005FEA4C0C404141EB010111F4801FA4F160
:100314000104E9D191F0000F04BF01460020B1FAB5
:1003240081F308BF2033A3F10B03B3F120020CDAED
:100334000C3208DD02F1140CC2F10C0201FA0CF0CB
:1003440021FA02F10CE002F11402D8BFC2F1200C30
:1003540001FA02F120FA0CFCDCBF41EA0C019040E6
:10036400E41AA2BF01EB0451294330BD6FEA04042F
:100374001F3C1CDA0C340EDC04F11404C4F120021A
:1003840020FA04F001FA02F340EA030021FA04F32C
:1003940045EA030130BDC4F10C04C4F1200220FA83
:1003A40002F001FA04F340EA0300294630BD21FAC1
:1003B40004F0294630BD94F0000F83F4801306BF87
:1003C40081F480110134013D4EE77FEA645C18BF7B
:1003D4007FEA655C29D094EA050F08BF90EA020F12
:1003E40005D054EA000C04BF1946104630BD91EA0A
:1003F400030F1EBF0021002030BD5FEA545C05D10D
:100404004000494128BF41F0004130BD14F580044B
:100414003CBF01F5801130BD01F0004545F0FE41BF
:1004240041F470014FF0000030BD7FEA645C1ABFF4
:10043400194610467FEA655C1CBF0B46024650EA2B
:10044400013406BF52EA033591EA030F41F4002157
:1004540030BD00BF90F0000F04BF0021704730B5DD
:100464004FF4806404F132044FF000054FF00001B2
:1004740050E700BF90F0000F04BF0021704730B573
:100484004FF4806404F1320410F0004548BF404248
:100494004FF000013EE700BF42004FEAE2014FEA9D
:1004A40031014FEA02701FBF12F07F4393F07F4F78
:1004B40081F06051704732F07F4208BF704793F07B
:1004C4007F4F04BF41F40021704730B54FF460748E
:1004D40001F0004521F000411CE700BF50EA010291
:1004E40008BF704730B54FF000050AE050EA01023A
:1004F40008BF704730B511F0004502D5404261EBAA
:1005040041014FF4806404F132045FEA915C3FF4EA
:10051400D8AE4FF003025FEADC0C18BF03325FEA87
:10052400DC0C18BF033202EBDC02C2F1200300FA38
:1005340003FC20FA02F001FA03FE40EA0E0021FA5D
:1005440002F11444BDE600BF70B54FF0FF0C4CF44B
:10055400E06C1CEA11541DBF1CEA135594EA0C0FFD
:1005640095EA0C0F00F0DEF82C4481EA030621EA38
:100574004C5123EA4C5350EA013518BF52EA033573
:1005840041F4801143F4801338D0A0FB02CE4FF025
:100594000005E1FB02E506F00042E0FB03E54FF055
:1005A4000006E1FB03569CF0000F18BF4EF0010E4D
:1005B400A4F1FF04B6F5007F64F5407404D25FEA49
:1005C4004E0E6D4146EB060642EAC62141EA5551FC
:1005D4004FEAC52040EA5E504FEACE2EB4F1FD0C3E
:1005E40088BFBCF5E06F1ED8BEF1004F08BF5FEABC
:1005F400500E50F1000041EB045170BD06F000466E
:1006040046EA010140EA020081EA0301B4EB5C041A
:10061400C2BFD4EB0C0541EA045170BD41F4801112
:100624004FF0000E013C00F3AB8014F1360FDEBF37
:10063400002001F0004170BDC4F10004203C35DA13
:100644000C341BDC04F11404C4F1200500FA05F396
:1006540020FA04F001FA05F240EA020001F0004237
:1006640021F0004110EBD37021FA04F642EB0601AD
:100674005EEA430E08BF20EAD37070BDC4F10C04D7
:10068400C4F1200500FA04F320FA05F001FA04F29B
:1006940040EA020001F0004110EBD37041F1000187
:1006A4005EEA430E08BF20EAD37070BDC4F1200592
:1006B40000FA05F24EEA020E20FA04F301FA05F2FA
:1006C40043EA020321FA04F001F0004121FA04F2A2
:1006D40020EA020000EBD3705EEA430E08BF20EA72
:1006E400D37070BD94F0000F0FD101F000464000AC
:1006F40041EB010111F4801F08BF013CF7D041EA2E
:10070400060195F0000F18BF704703F00046520031
:1007140043EB030313F4801F08BF013DF7D043EA02
:100724000603704794EA0C0F0CEA135518BF95EAB8
:100734000C0F0CD050EA410618BF52EA4306D1D13F
:1007440081EA030101F000414FF0000070BD50EA5E
:10075400410606BF1046194652EA430619D094EAE8
:100764000C0F02D150EA013613D195EA0C0F05D1D2
:1007740052EA03361CBF104619460AD181EA030126
:1007840001F0004141F0FE4141F470014FF00000DE
:1007940070BD41F0FE4141F4780170BD70B54FF079
:1007A400FF0C4CF4E06C1CEA11541DBF1CEA1355F9
:1007B40094EA0C0F95EA0C0F00F0A7F8A4EB0504DB
:1007C40081EA030E52EA03354FEA013100F08880D2
:1007D4004FEA03334FF0805545EA131343EA12639B
:1007E4004FEA022245EA111545EA10654FEA002650
:1007F4000EF000419D4208BF964244F1FD0404F509
:10080400407402D25B084FEA3202B61A65EB030564
:100814005B084FEA32024FF480104FF4002CB6EB21
:10082400020E75EB030E22BFB61A754640EA0C00A1
:100834005B084FEA3202B6EB020E75EB030E22BFE1
:10084400B61A754640EA5C005B084FEA3202B6EB22
:10085400020E75EB030E22BFB61A754640EA9C00E1
:100864005B084FEA3202B6EB020E75EB030E22BFB1
:10087400B61A754640EADC0055EA060E18D04FEA6F
:10088400051545EA16754FEA06164FEAC30343EA0F
:1008940052734FEAC2025FEA1C1CC0D111F4801FDC
:1008A4000BD141EA00014FF000004FF0004CB6E7D5
:1008B40011F4801F04BF01430020B4F1FD0C88BF74
:1008C400BCF5E06F3FF6AFAEB5EB030C04BFB6EB7F
:1008D400020C5FEA500C50F1000041EB045170BD72
:1008E4000EF0004E4EEA113114EB5C04C2BFD4EB9F
:1008F4000C0541EA045170BD41F480114FF0000E23
:10090400013C90E645EA060E8DE60CEA135594EA9E
:100914000C0F08BF95EA0C0F3FF43BAF94EA0C0FA1
:100924000AD150EA01347FF434AF95EA0C0F7FF416
:1009340025AF104619462CE795EA0C0F06D152EA6A
:1009440003353FF4FDAE1046194622E750EA41064E
:1009540018BF52EA43067FF4C5AE50EA41047FF45F
:100964000DAF52EA43057FF4EBAE12E74FEA4102C2
:1009740012F5001215D211D56FF47873B3EB6252ED
:1009840012D94FEAC12343F0004343EA505311F014
:10099400004F23FA02F018BF404270474FF00000A6
:1009A400704750EA013005D111F0004008BF6FF0E4
:1009B400004070474FF00000704700BF53B94AB978
:1009C400002908BF00281CBF4FF0FF314FF0FF3053
:1009D40000F00CB8ADF1080C6DE904CE07F036FF59
:1009E400DDF804E0DDE9022304B07047704700BF7E
:1009F4000348044B834202D0034B03B118477047AA
:100A040014020020140200200000000005480649DA
:100A1400091A891001EBD171491002D0034B03B1BB
:100A24001847704714020020140200200000000040
:100A340010B5064C237843B9FFF7DAFF044B13B122
:100A44000448AFF300800123237010BD140200207A
:100A540000000000208B000808B5054B1BB10549B8
:100A64000548AFF30080BDE80840FFF7CFBF00BFE3
:100A74000000000018020020208B000810B5084C6C
:100A8400082309220A21204600F038FC054BB4F95A
:100A94000C201A60044BB4F90E201A6010BD00BF7C
:100AA4003802002030020020340200202DE9F74FE4
:100AB400904D9148914E4FF6FF7100F020FE2C6846
:100AC400D6F800802046FFF7D5FC88A3D3E900239D
:100AD400FFF764FE00228A4BFFF780FBFFF746FF17
:100AE4000FFA80FA4046FFF7C5FC0022854BFFF75A
:100AF40055FE0022844BFFF771FBFFF737FF002CF4
:100B0400B8BF0334A4100A2798FBF7F30F334FF44C
:100B14007849611D1BB202B2CDF80490009309B26A
:100B24005346754800F036FE2868FFF7A3FC002200
:100B3400764B346894FBF7F782468B46FFF72EFE1C
:100B440000226F4BFFF74AFBFFF710FF67A3D3E9BF
:100B540000230FFA80F859465046FFF71FFE002283
:100B6400674BFFF73BFBFFF701FF0FFA80FA2046C4
:100B7400CDF80490FFF77EFC0022624BFFF70EFED7
:100B84000022614BFFF72AFBFFF7F0FE0F373FB25D
:100B940000B243463A4600905146574800F0FAFDE9
:100BA4003468D5F800A02046FFF764FC0022554BBA
:100BB400FFF7F4FD0022544BFFF710FBFFF7D6FEBE
:100BC4000FFA80F85046FFF755FC00224F4BFFF711
:100BD400E5FD00224A4BFFF701FBFFF7C7FE002C9F
:100BE400B8BF03340AEBDA777F10A41005370F344B
:100BF4003FB224B201B2CDF8049000943B46424681
:100C04003D48DFF8F49000F0C5FD306829680028FD
:100C140002464FF00303B8BFC21C91FBF3F301EB90
:100C2400D1710327921090FBF7F049100F304FF465
:100C3400784800B205330F3205311BB2009012B26E
:100C4400CDF8048009B22C4800F0A4FDD5F800A02A
:100C540034685046FFF70EFC00222C4BFFF79EFD34
:100C64000022274BFFF7BAFAFFF780FE94FBF7F256
:100C74009AFBF7F104EBD47464100F3424B20F32EE
:100C8400053103B212B2CDF80480009409B21A48B7
:100C940000F080FD0221184800F0C4FF4FF0F82353
:100CA400C9F814303068FFF7E5FB4FF03332184BC6
:100CB400FFF774FD00220023FFF790FAFFF756FEBA
:100CC4002B68A9F812000F22124993FBF2F30A4889
:100CD400A9F8103007F07BFA40F6B83003B0BDE84D
:100CE400F04F07F00FB800BFAFF30080CDCCCCCCF1
:100CF400CCCCFC3F3402002038020020300200201B
:100D04000000144000001E4000002E400000F83F88
:100D14003333F33F678B0008000000002DE9F341F3
:100D2400B44CB54EB54D2046002100F0E8FC3068C7
:100D3400FFF7A0FB0022B24BFFF730FDFFF716FED2
:100D44004FF6FF7702B2CDE90027B5F9003020460F
:100D5400002100F01FFD3068FFF78CFB0022A84B38
:100D6400FFF71CFDFFF702FE02B2CDE90027B5F93B
:100D740000302046002100F00DFD3068FFF77AFBBB
:100D84000022A04BFFF70AFDFFF7F0FD02B2CDE908
:100D94000027B5F900302046002100F0FBFC204676
:100DA400012100F03FFF67613068FFF763FB002219
:100DB400954BFFF7F3FCFFF7D9FD07B22868FFF75F
:100DC40059FB80A3D3E90023FFF7E8FCFFF7CEFD2E
:100DD4008E4920822046678207F0F9F920460221D5
:100DE40000F020FF3068FFF745FB78A3D3E9002328
:100DF400FFF7D4FCFFF7BAFD07B22868FFF73AFB08
:100E040074A3D3E90023FFF7C9FCFFF7AFFD8049C2
:100E140020822046678207F0DAF92046012100F09B
:100E240001FF33687B492A6803EBD37343F34F0311
:100E340020466382072792FBF7F2228207F0C7F964
:100E44002046022100F0EEFE3068FFF713FB63A397
:100E5400D3E90023FFF7A2FCFFF788FD0FFA80F81F
:100E64002868FFF707FB00226B4BFFF797FCFFF79F
:100E74007DFD6A4920822046A4F8128007F0A7F974
:100E84002046012100F0CEFE3068FFF7F3FA55A3A7
:100E9400D3E90023FFF782FCFFF768FD6049608215
:100EA40020462B6893FBF7F3238207F090F9306810
:100EB400FFF7E0FA00225B4BFFF770FCFFF756FDEB
:100EC40007B22868FFF7D6FA00224F4BFFF766FCFB
:100ED400FFF74CFD544920822046678207F077F9DA
:100EE4002046022100F09EFE3068FFF7C3FA35A3C6
:100EF400D3E90023FFF752FCFFF738FD4B4960822A
:100F0400204606222B6893FBF2F3238207F05FF955
:100F14002046012100F086FE3068FFF7ABFA31A3CA
:100F2400D3E90023FFF73AFCFFF720FD07B2286856
:100F3400FFF7A0FA2DA3D3E90023FFF72FFCFFF757
:100F440015FD3B4920822046678207F040F930684E
:100F5400FFF790FA0022334BFFF720FCFFF706FD62
:100F640007B22868FFF786FA4FF03332314BFFF7A8
:100F740015FCFFF7FBFC304920822046678207F00E
:100F840026F92046022100F04DFE3068FFF772FA80
:100F94000CA3D3E90023FFF701FCFFF7E7FC06B23B
:100FA4002868FFF767FA0022164BFFF7F7FBFFF7F5
:100FB400DDFC224920822046668202B0BDE8F04171
:100FC40007F005B9CDCCCCCCCCCCF43F9A99999907
:100FD40099990540666666666666FE3F666666665D
:100FE400666606409A9999999999F13FCDCCCCCCF3
:100FF400CCCCFC3F38020020300200203402002018
:1010040000000C400000F83F00000440388B00084A
:101014003D8B0008418B000800001640468B0008F9
:10102400488B00080000F43F518B0008538B0008E4
:10103400578B00083333F33F628B0008648B00083E
:1010440010B5144C14484FF4E13107F0B5F92046BB
:10105400062100F063F92046012100F0EBF8204658
:10106400002100F0E2FD0721204600F0DBFD4FF6F1
:10107400FF736420636106F045FE2046002100F002
:101084003EFB00232361FFF711FDBDE81040FFF78D
:1010940045BE00BF38020020D00400202DE9F347EC
:1010A400DFF87C915C4F5D4DD9F8002039680A2443
:1010B40019264FF6FF734FF00F08CDE9006392FB3A
:1010C400F8F291FBF4F12346284612B209B200F07B
:1010D40057FF396891FBF4F14FF678730D31D9F865
:1010E400002092FBF8F2CDE900632846234612B2B1
:1010F40009B200F045FF4FF6CE6A396891FBF4F16E
:101104001A31D9F8002092FBF8F223462846CDE99B
:10111400006A12B209B200F033FF396891FBF4F1AE
:101124002731D9F8002092FBF8F223462846CDE96E
:10113400006A12B209B200F023FF396891FBF4F19E
:101144004FF6C0533431D9F8002092FBF8F2CDE9C0
:1011540000632846234612B209B200F011FF396831
:1011640091FBF4F14FF6A0434131D9F8002092FBF2
:10117400F8F2CDE900632846234612B209B200F022
:10118400FFFE396891FBF4F14FF6A0334E31D9F8E4
:10119400002092FBF8F2CDE900632846234612B200
:1011A40009B200F0EDFE396891FBF4F14FF68023AB
:1011B4005B31D9F8002092FBF8F2CDE900632846B0
:1011C400234612B209B200F0DBFE396891FBF4F158
:1011D4004FF6E0136831D9F8002092FBF8F2CDE91C
:1011E40000632846234612B209B200F0C9FE3968EA
:1011F40091FBF4F14FF478437531D9F8002092FB58
:10120400F8F2CDE9006312B2234609B2284600F091
:10121400B7FE02B0BDE8F087340200203802002097
:101224003002002008B5FFF739FF0120BDE808406F
:1012340006F068BD13B500238DF8073090F84B30E5
:1012440003F0FB0201F00304012A847606D111F0B5
:10125400020F0CBF0322012280F84920022C90F8CF
:10126400481090F849202DD0032C35D0012C17D0EC
:10127400022B13D0042B14BFC824C024042B8DF8D4
:10128400074027D0194BC3608187C28701230DF122
:101294000702362101F00FF802B010BDC024EDE7BB
:1012A400022B0DD0042B14BFA824A024042B14BF9C
:1012B4000F4B104B8DF80740C360C1878287E5E769
:1012C400A024F3E7022BDDD0042B03D008238DF8F0
:1012D4000730D7E7084BD6E7022B04D0042B14BF02
:1012E40068246024E2E76024E0E700BF8000A000F7
:1012F400A0008000A00050005000A00013B5CDE96C
:1013040000230B46A0228021044600F0CBF8024BB8
:101314002360204602B010BD188C000837B50D4676
:101324002849044600F0F8F835B92749204600F06A
:10133400CFF84FF481730BE005F0FB03012B2BD1A5
:10134400224BE3602249204600F0C2F840F2023307
:10135400A4F848301F49204600F0BAF8022D01D005
:10136400042D09D1C0238DF807300DF107020123A4
:101374003621204600F09FFF052D236808BF012277
:101384009B6A07BF84F84B20022184F84B5000214C
:101394002046984703B030BD6B1F012B03D80E4B7A
:1013A400E3600B49C2E7042D07D10C4BE3600C4901
:1013B400204600F08DF81823CAE70A49204600F0B9
:1013C40087F8C7E79B8B0008748B00088000A00097
:1013D400818B0008D68B0008A00080005000A0007C
:1013E4008E8B0008018C0008064B90F84A200029D7
:1013F40008BF194642F221034164A0F8403000F0CE
:1014040081BC00BF0024F40070B5868FBDF8104085
:101414003144C68F89B2324492B2CE181444013E8C
:10142400054646EA0146013C2A2144EA024400F00A
:101434009AFF3146284601F038F828462B2100F05F
:1014440092FF2146284601F030F828462C21BDE8B9
:10145400704000F088BF07B501F0030100230229A2
:101464008DF80730817690F8482090F8493006D0FE
:10147400032915D001290DD0C0218DF807108287CA
:10148400C38701230DF10702362100F014FF03B0D6
:101494005DF804FBA0218DF80710C2878387F0E76D
:1014A4006021F8E737B59DF91C5001959DF9185056
:1014B4000095044600F014FC044B236020460023EE
:1014C400A4F8483084F84A3003B030BD708C00086A
:1014D4002DE9F04111F8015B8046013DEDB2FF2D8D
:1014E40018D04C788F1C04F07F06334609783A46AE
:1014F400404600F00CFF230607EB0601EDD5B85D6E
:10150400FF2801F1010408BF4FF4FA7006F0FAFB5A
:101514002146E2E7BDE8F08138B503680D469B6CCF
:101524000021044698472DB129462046BDE838409D
:10153400FFF7CEBF38BD2DE9F04F85B01F46BDF98A
:101544003830BDF83CA015469A1A82EAE27BABEB30
:10155400E27B7A1A002AB8BF5242934581460C4670
:10156400019204DD3A462C461F460D461346BC4202
:1015740005DD2A461D46134622463C461746A7EB80
:1015840004085A1B1FFA88F8002A0FFA88F6B8BF15
:10159400524206EBD67602929D42B4BF01234FF02D
:1015A400FF33721000920393BC4220DCD9F8003060
:1015B4001B691E46019B9B45CCBF22462A465346C7
:1015C400CCBF294621464846B047009A029BD61A0A
:1015D400B3B21AB2002A009206DA039A08EB0306A1
:1015E400154433B22DB20093013424B2DCE705B0C4
:1015F400BDE8F08F704710B40468A468A4465DF891
:10160400044B604730B40468BDF808500295246B5D
:10161400A44630BC604730B40468BDF80850029555
:10162400646BA44630BC604770B4BDF90C50BDF87F
:1016340010600468CDE90356A46BA44670BC6047EF
:101644002DE9F3411C460368BDF82080DB6805469C
:101654001646013C34440F4624B298472B68CDF813
:10166400048000941C6A28463B4632463946A0470B
:101674002B685B6A284602B0BDE8F04118472DE9A3
:10168400F3411D460368BDF82080DB680446174615
:101694000E469847CDE9007822686B1E3344156ADC
:1016A40020461BB23A463146A84723685B6A204667
:1016B40002B0BDE8F04118472DE9F3471E46036820
:1016C400BDF92880DB68BDF82C900C46054617460A
:1016D40098472644B4422A680BDACDF80090D2F831
:1016E40018A0214643463A4628460134D04724B23E
:1016F400F0E7536A284602B0BDE8F047184713B52F
:1017040002680191B0F90E100091946BB0F90C309D
:1017140000221146A04702B010BD2DE9F3471D4633
:101724000368BDF82C70DB68BDF928900446884630
:101734001646984723680097D3F81CA032462B46D8
:1017440041462046D0472368009709F1FF323244CE
:10175400D3F81CA041462B46204612B2D04723683A
:101764000097D3F818A032464B4641462046D0474E
:1017740023680097691E41449D6920464B463246C2
:1017840009B2A84723685B6A204602B0BDE8F04767
:10179400184770472DE9F7439942904607460E468D
:1017A4001C46BDF92850BDF82C90026814D1A845F8
:1017B400C8BF4346CDF82890C4BFA8461D466B1C3D
:1017C400146BA3EB08031BB2424631463846A446C9
:1017D40003B0BDE8F0436047A8450AD19942C2BFAF
:1017E4000B4626461C46631CCDF828909B1B546B65
:1017F400E9E7D3689847CDE900593B6838461D6A44
:10180400424623463146A8473B685B6A384603B0E4
:10181400BDE8F043184701F0030102298176B0F9CD
:101824000830B0F90A2003D0032904D0012902D0DA
:101834008381C28170478281C381704730B5428100
:10184400C281074A074D0181002481814FF0FF3195
:10185400446005600461C0E905120477046230BD88
:1018640001010001C89100082DE9F04F91B09046A4
:10187400026A04911F46BDF8683002930446BDF81D
:101884006C909DF870609DF87450002A40F0B78009
:10189400B0F90C308B4240F33681B0F90E30434539
:1018A40040F33181062313FB0613002B40F32B81F5
:1018B40008EBC503002B40F32681037F1BB9AF2F30
:1018C40084BF0137FFB223682046DB6898470522AE
:1018D40009928E4A07EB8703D3180C931FFA88F3F7
:1018E400002705930C9BDB5D0693B3B20793BDF809
:1018F40010300393039A079B07FB03231BB208933F
:1019040008230A9312FA87F31BB24FF0000A0B93D1
:10191400069A2368D2074BD5012E1FFA8AF238D1D2
:10192400012D36D10599D3F810B0029B0A4412B2A6
:101934000B992046D847069B5B0806930A9B013BFC
:101944000AF1010A13F0FF034FFA8AFA0A93DFD16E
:10195400099B013B013713F0FF037FB20993C1D107
:10196400029B4B450ED0012E236837D1012D35D172
:101974000399CDF8009005319D694246082309B2C8
:101984002046A84723685B6A204611B0BDE8F04FA3
:101994001847059915FB02F20A4402990191009532
:1019A400D3F814B00899334612B22046D847C2E798
:1019B400029A4A45BFD0012E1FFA8AF207D1012D9F
:1019C40005D10599D3F810B00A444B46AFE7059901
:1019D400CDF8049015FB02F20A44E0E7079ACDF82B
:1019E400049002EB8201039AED000A44114600952B
:1019F4005D694246334609B22046A847C2E7137AD6
:101A0400516812680D92FF1AFFB201EBC70331F857
:101A1400372003929A780792DA780B92012E93F981
:101A24000520089293F906B001D8012D51D9BDF9CA
:101A3400203006930FFA8BF3059323682046DB6866
:101A440098471FFA88F34FF0000909935B44CA468C
:101A54004F460F930B9B9F4294D2059B099A3B449C
:101A640003FB05230F9A3A441BB212B20A934FF0B8
:101A740000084B460E92079A90453DD25A1CD2B2AA
:101A84005B070C9207D1039B03990D9A01339BB218
:101A940012F801A003931AF0800F10D0012E2268CF
:101AA400BDF8101019D1012D17D1089BD2F810B030
:101AB4000E9A19444144029B09B22046D8474FEA82
:101AC4004A0A08F101085FFA8AFA5FFA88F80C9B5F
:101AD400D1E70023CDE90533AFE7069B434403FB7D
:101AE4000611029BCDE9005309B2D2F814B00A9A48
:101AF40033462046D847E2E7079B013799445FFA0B
:101B040089F9FFB2A6E711B0BDE8F08FC08C0008D8
:101B1400F0B5026A85B004460B46002A34D10A297E
:101B240008D10282438A427E03EBC203638201200E
:101B340005B0F0BD0D29FAD0E17E007E657E71B15D
:101B4400B4F91060062111FB0061B4F90C60B142D4
:101B5400C1BFB4F91210228201EBC5026282E28A8B
:101B64000192A28A0092CDE90205B4F91220B4F9D7
:101B740010102046FFF778FE237E228A03EB4303EE
:101B840002EB43032382D2E70A2907D1002303820D
:101B9400937A417E428A01FB0323C7E70D29C6D00D
:101BA400157AA942C3D3517A9942C0D35D1B5168B7
:101BB400EDB201EBC505AF782FB3E97819B3E17E37
:101BC400007E667E91B195F905103944B4F9107020
:101BD40000FB0171B4F90C70B94207DD00272782BC
:101BE400B4F91210927A02FB06126282E28A01921E
:101BF400A28A0092CDE90206B4F91220B4F91010B9
:101C04002046FFF731FE2979237E228A01FB032334
:101C1400B8E7002908BF0121002A08BF0122017684
:101C2400427670470A46FFF7F4BF036A29B113B935
:101C3400438A0633438201627047002BFBD0438AF8
:101C4400063BF7E7012106F03BB8002106F038B85F
:101C540010B50446002190F9000006F031F894F91B
:101C640000000121BDE8104006F02AB802F1FF3C53
:101C74004160DCF1000141EB0C01817202720BB98D
:101C8400437205E0012BFBD0022BF9D0032BF7D0D4
:101C9400704713460A463C2100F012BD38B512B213
:101CA400044609B21D46FFF7C9FD0C4B23609DF99C
:101CB400183084F839309DF9103084F83A30002215
:101CC4009DF9143084F8382084F83B30E263A4F89A
:101CD400402062646562204638BD00BF1892000847
:101CE40030B585B004469DF9245002959DF92050E5
:101CF400CDE90035024BFFF7D1FF204605B030BDDA
:101D040084020020F0B50446444E90F93A000029BC
:101D140018BF0E46002885B0174607DB012105F0E1
:101D240075FF012194F93A0005F0CAFF012194F9E5
:101D34003B0005F06BFF012194F93B0005F0C0FF67
:101D440094F83850A5BB3B463146012201A8FFF761
:101D54008DFF01AB03CBE16219889B78A0622186D9
:101D640084F8323067633C21606A00F023FC94F904
:101D7400390000281ADB012105F048FF012194F9FC
:101D8400390005F09DFF642005F0BCFF002194F9A3
:101D9400390005F095FF642005F0B4FF94F939008B
:101DA400012105F08DFFC82005F0ACFF05B0F0BDA2
:101DB400012D1BD1294694F9240005F027FF0021A9
:101DC40094F9240005F07CFF294694F9260005F0D7
:101DD4001DFF94F92600002105F072FF94F92500F7
:101DE4000028C4DB002105F011FFC0E7012194F9AC
:101DF400250005F00BFF94F92500012105F060FF93
:101E040094F926000028B2DB012105F0FFFE012130
:101E140094F9260005F054FFA9E700BF0024F4005C
:101E24002DE9F041054688461446002A3CD090F836
:101E340038300F0ACEB26BB914F1FF3434D33946BB
:101E44000122686AFFF725FF01223146686AFFF71D
:101E540020FFF1E7012B1DD114F1FF3424D34746B1
:101E640010263B044CBF0121002195F9240005F004
:101E740027FF013E012195F9260005F021FF7F008F
:101E8400002195F92600B6B2BFB205F019FF002E65
:101E9400E7D1E1E7B74207D0253514F1FF3403D386
:101EA4002846FFF7D5FEF8E7BDE8F0812DE9F341B8
:101EB400BDF92050BDF824701E46ABB200930368F0
:101EC40092B2D3F84C8089B2B3B20446C04706FB41
:101ED40005F23946204602B0BDE8F041FFF7A0BF45
:101EE4002DE9F341BDF92040002B46D0002C44D00D
:101EF400002B05DA9BB2013119445B4209B21BB2D3
:101F0400B0F90C608E4238DD002C05DAA4B201323F
:101F14002244644212B224B2B0F90E5095422CDD30
:101F240001EB03081FFA88F808F1FF3C0FFA8CFC58
:101F3400BCF1000F21DB02EB040E1FFA8EFE0EF142
:101F4400FF373FB2002F18DB0029BCBF0FFA88F31C
:101F54000021002ABCBF0FFA8EF400226645DCBFC4
:101F6400731A1BB2BD42D8BFAC1ABDF82450D8BFF7
:101F740024B2CDE90045FFF799FF02B0BDE8F08136
:101F84002DE9F74380460E461746BDF92850BDF8A3
:101F94002C901C46002B52D0002D50D0002B05DA7B
:101FA4009CB201362644644236B224B2B8F90C30ED
:101FB400B34244DD002D05DAADB201372F446D4242
:101FC4003FB22DB2B8F90E20BA4238DD06EB040E4A
:101FD4001FFA8EFE0EF1FF3000B200282FDB07EB54
:101FE400050C1FFA8CFC0CF1FF3109B2002926DB29
:101FF400002EBCBF0FFA8EF40026002FBCBF0FFAD0
:102004008CF500278342DCBF9B1B1CB28A42D8F8A4
:102014000030DCBFD51B2DB24046DB689847234611
:102024004046CDE900593A463146FFF73FFFD8F81C
:1020340000305B6A404603B0BDE8F043184703B084
:10204400BDE8F0832DE9F341171E06460C461D46F4
:10205400BDF8208033DBB0F90E30BB422FDD002DFC
:102064002DD005DAADB201342C446D4224B22DB228
:10207400B6F90C30A34222DD601980B2411E09B2C8
:1020840000291CDB002CBCBF05B200248B42DCBF42
:102094001B1B1DB233683046DB689847012300934D
:1020A40030462B46CDF804803A462146FFF7FEFE23
:1020B40033685B6A304602B0BDE8F041184702B0AD
:1020C400BDE8F0812DE9F3410F1E064614461D4676
:1020D400BDF8208031DBB0F90C30BB422DDD002D82
:1020E4002BD005DAADB201342C446D4224B22DB2AA
:1020F400B6F90E30A34220DD601980B2421E12B23E
:10210400002A1ADB002CBCBF05B200249342DCBFBA
:102114001B1B1DB233683046DB6898473046CDE957
:102124000058012322463946FFF7C0FE33685B6A34
:10213400304602B0BDE8F041184702B0BDE8F08176
:10214400002A73B527DBB0F90E40944223DD002B3F
:1021540021D005DA9BB2013119445B4209B21BB2AA
:10216400B0F90C408C4216DDCE18B6B2751E2DB2F5
:10217400002D10DB0029BCBF33B20021AC42D8BF14
:10218400631ABDF8184001944FF00104D8BF1BB284
:102194000094FFF78BFE02B070BD73B5002926DBF7
:1021A400B0F90C408C4222DD002B20D005DA9BB222
:1021B40001321A445B4212B21BB2B0F90E4094428F
:1021C40015DDD618B6B2751E2DB2002D0FDB002A10
:1021D400BCBF33B20022AC42D8BFA31ABDF818402A
:1021E400D8BF1BB2CDE900340123FFF75FFE02B074
:1021F40070BD10B590F8383086B0044663B900F16C
:10220400280207CA03AB83E80700059A00920CCBA7
:102214003C21606A00F0F6F906B010BD10B5044622
:10222400FFF7E7FF94F93A00002803DBBDE810400C
:10223400FFF70BBD10BD90F838301BB93C21406A44
:1022440000F020BA704710B5044690F93A0000280F
:1022540001DBFFF7F7FC2046FFF7EDFF10BD70B57B
:1022640090F8383004460E4623B90122406AFFF73D
:1022740010FD70BD012B19D1082533064CBF012177
:10228400002194F9240005F01BFD012194F9260096
:1022940005F016FD013D002194F92600760005F0B5
:1022A4000FFD15F0FF05F6B2E7D1E2E72530BDE8F2
:1022B4007040FFF7CDBCF8B504460D4616461F46E0
:1022C400FFF797FF94F93A00002801DBFFF7BDFC04
:1022D40094F93B00FFF7B9FC29462046FFF7BFFFFE
:1022E40094F93B00FFF7AEFC0025AF4205DD715DBC
:1022F4002046FFF7B4FF0135F7E794F93A000028C8
:1023040001DBFFF79FFC2046FFF795FFF8BDF8B50A
:1023140004460D4616461F46FFF76BFF94F93A0034
:10232400002801DBFFF791FC94F93B00FFF78DFCDB
:1023340029462046FFF793FF94F93B00FFF782FC00
:102344000025AF4205DD715D2046FFF788FF0135AA
:10235400F7E794F93A00002801DBFFF773FC204605
:10236400FFF769FFF8BD38B504460D4690F93B0008
:10237400FFF76BFC20462946FFF771FF94F93B00F9
:10238400BDE83840FFF75EBC036870B5DB680D46F6
:102394000446984755B194F840102046FFF7E3FFF0
:1023A400236820465B6ABDE87040184794F84110E2
:1023B400F3E770B590F8383004460D4653B901225E
:1023C400090A406AFFF765FC0122E9B2606AFFF777
:1023D40060FC70BD012B19D110262B044CBF0121C8
:1023E400002194F9240005F06BFC012194F92600E6
:1023F40005F066FC013E002194F9260005F060FC1E
:102404006D0016F0FF06ADB2E7D1E2E72530BDE876
:102414007040FFF71DBC73B5002904461D4617DB49
:10242400B0F90C308B4213DD002A11DBB0F90E3009
:1024340093420DDD066801230093F66C92B289B2D3
:10244400B0472946204602B0BDE87040FFF7B1BF4F
:1024540002B070BD2DE9F3410E1E044615461F4619
:1024640020DBB0F90C30B3421CDD002A1ADBB0F9D2
:102474000E30934216DD0368DB6898472268012317
:102484000093D2F84C80B1B2AAB22046C04720468D
:102494003946FFF78EFF23685B6A204602B0BDE829
:1024A400F041184702B0BDE8F08170B590F83830BB
:1024B40004460D46B3B90122090E406AFFF7E9FB51
:1024C4000122C5F30741606AFFF7E3FB0122C5F36C
:1024D4000721606AFFF7DDFB0122E9B2606AFFF7BA
:1024E400D8FB70BD012B19D12026002DB4BF0121CA
:1024F400002194F9240005F0E3FB012194F926005E
:1025040005F0DEFB013E002194F9260005F0D8FB1E
:1025140016F0FF064FEA4505E7D1E2E72530BDE8AE
:102524007040FFF795BB3C2970B504461BD80023C7
:102534000C2505FB03F6D8B2A65FB1420DD00133DA
:10254400042BF6D1012A0CD100230C2505FB03F240
:10255400D8B2A65E013601D1A15270BD0133042B5D
:10256400F4D11846F9E70420F7E7000070B50F4EE0
:10257400034600F130044FF6FF72012100251A8052
:102584005E60197299725D720C33A342F7D1084BE5
:102594000286198BA0F89010D98AA0F892105B8B50
:1025A400A0F89430A0F8962070BD00BF00093D004B
:1025B400009700083C2970B505460E4621D8012233
:1025C400FFF7B1FF032804461BD83C2E0BD0B5F906
:1025D4009630013307D10121304605F017FB012164
:1025E400304605F06DFB0C2000FB0450002385F8F9
:1025F4008530837A427A416805F1340003F0EAFCBD
:102604002E8670BD82B0F8B53C2906AC06460F464E
:1026140084E80C0031D80122FFF785FF0328054622
:102624002BD804B204EB440406EB8404079B6360D8
:102634000C239DF82020BDF8201003FB00631981B2
:10264400511E4A424A413C2F9A720BD0B6F9963039
:10265400013307D10121384605F0D8FA0121384663
:1026640005F02EFB0C2303FB05656168AB7A6A7ADF
:1026740006F1340003F0AEFC3786BDE8F84002B042
:10268400704700003C29F0B516D80C4E034600F103
:1026940030044FF6FF7501220027B3F900C08C45C2
:1026A40004D11D805E601A729A725F720C33A34269
:1026B400F3D14FF6FF730386F0BD00BF00093D0060
:1026C40070B586B03C298DF80F204FF00002054606
:1026D4000C461E468DF8172039D8B0F9303099428F
:1026E40012D0FFF720FF032803D99DF8170006B086
:1026F40070BD0C2303FB0050837A427A416805F1D4
:10270400340003F067FC2C863C2C07D0B5F99630D6
:10271400013303D10021204605F0D2FA4FF47A7335
:1027240000930DF1170201230DF10F0105F134009F
:1027340003F06CFD3C2CD8D0012ED6D1B5F99630DF
:102744000133D2D13146204605F0BAFACDE710461E
:10275400CDE700000148FFF709BF00BF8402002055
:1027640070B5ACB000232A4A0193116C41F080513A
:102774001164126C02F080520192019A254A02936C
:10278400116841F44041116012680A93022402F472
:10279400404208200292CDE90E43B4230125029A57
:1027A4000D950A221026CDE9100308A80892CDE958
:1027B4000B56CDE91244149401F0FEFF00B1FEE77C
:1027C40001F0AEFC00B1FEE70F234FF4A051CDE9B8
:1027D40003344FF480530590CDE9061303A8052173
:1027E40001F0DAFC00B1FEE721231593C023CDE903
:1027F400173423904FF4007315A81696CDE91944A5
:102804001F95259301F086FD00B1FEE72CB070BD45
:102814000038024000700040DFF834D0002103E0AB
:102824000C4B5B58435004310B480C4B42189A42F2
:10283400F6D30B4A02E0002342F8043B094B9A42C8
:10284400F9D303F0F3FC05F0F9FE05F0F3FD70474E
:1028540000000220A89A00080000002014020020B2
:1028640014020020540F0020FEE703F04FBA704713
:102874007047000038B50E4A0E4B054618784FF4E1
:102884007A73B3FBF0F31068B0FBF3F000F0BEF81A
:10289400044658B90F2D09D8024629464FF0FF3097
:1028A40000F05EF8044B20461D6038BD0120FCE7B3
:1028B40028000020000000200400002008B50B4B75
:1028C4001A6842F400721A601A6842F480621A604C
:1028D4001A6842F480721A60032000F02FF8002076
:1028E400FFF7C8FFFFF7C4FF002008BD003C02400B
:1028F400034A044B11681B780B441360704700BFF4
:102904002806002000000020014B1868704700BF13
:102914002806002038B50446FFF7F6FF631C1CBFE9
:10292400054B1B78054618BFE418FFF7EDFF401B65
:10293400A042FAD338BD00BF00000020074AD36884
:1029440023F4E06300021B0400F4E0601B0C184352
:1029540040F0BF6040F40030D060704700ED00E00C
:10296400174B70B5DC68C4F30224C4F10705042DC9
:1029740004F1040328BF04254FF0FF36062B06FAA2
:1029840005F58CBF033C002421EA0501A14006FAA9
:1029940004F422EA0403002843EA0103A8BF00F177
:1029A40060404FEA0313BCBF00F00F00054ADBB2DE
:1029B400AABF00F56140135480F8003370BD00BF16
:1029C40000ED00E014ED00E0002808DB42090123DB
:1029D40000F01F0003FA00F0014B43F82200704797
:1029E40000E100E000280DDB4309012200F01F0094
:1029F40002FA00F02033044A42F82300BFF34F8F59
:102A0400BFF36F8F704700BF00E100E00138B0F101
:102A1400807F0AD2064B074A5860F02182F82310BF
:102A24000020072298601A6070470120704700BF99
:102A340010E000E000ED00E0002809DB430901227A
:102A440000F01F0002FA00F06033024A42F823004B
:102A5400704700BF00E100E0704708B5FFF7FCFFD6
:102A640008BD10B5044640B10223037105F0F6FC1D
:102A7400002020616071207110BD0120FCE710B5B9
:102A840004680122236802FA01F123EA01032360A6
:102A94000271002010BD90F83530022B03D0802342
:102AA4004365012070470268052380F835301368B8
:102AB40023F0010313600020704790F8350070473D
:102AC40008B5044B5969014202D0586105F028FD4C
:102AD40008BD00BF003C014037B590F83D4004F00C
:102AE4002804282C34D1002930D0002A2ED090F884
:102AF4003C40012C2CD00568012480F83C402C6813
:102B0400E4075EBF2C6844F001042C602C6824F4B4
:102B140000642C60292480F83D40202480F83E4045
:102B2400002404644285428DC36201946B6901935D
:102B3400AB690193019B6B68416243F4E0630285D6
:102B440080F83C406B60204603B030BD0120FBE7B9
:102B54000220F9E737B590F83D4004F02804282C0A
:102B640034D1002930D0002A2ED090F83C40012CDA
:102B74002CD00568012480F83C402C68E4075EBF33
:102B84002C6844F001042C602C6824F400642C604C
:102B94002A2480F83D40202480F83E400024046428
:102BA4004285428DC36201946B690193AB690193C1
:102BB400019B6B68416243F4E063028580F83C400A
:102BC4006B60204603B030BD0120FBE70220F9E72B
:102BD40090F83D30202B14D1282380F83D30036831
:102BE4001A68D2075EBF1A6842F001021A601A68B6
:102BF40042F480621A605A6842F440725A600020BB
:102C0400704702207047704770477047704770479D
:102C1400806B026890F83D1070B51468466B856B44
:102C2400002324F48064F363EB6314604385146825
:102C3400336524F001042B65146090F83D40602C4A
:102C4400C9B208D1202280F83D2080F83E300364C8
:102C5400FFF7DDFF70BD01F0280128290DD11468AC
:102C640044F001041460146844F480641460036341
:102C740080F83D1003F04AFCECE7202280F83D2068
:102C840080F83E30F6E7000090F83D2090F83E10C2
:102C94000368102910B5D2B2044612D1222A10D1E9
:102CA400196821F4006119605968090504D4602A7F
:102CB4001CBF202284F83D200022226384F83E2099
:102CC40007E002F028012829EED10022226384F8CB
:102CD4003D105A6812F400624CD05A68606B22F4BA
:102CE40000625A6090F83530012B364B28D00365CA
:102CF400FFF7D1FE50B12268606B136823F0010323
:102D04001360202384F83D30036D984794F83D30D8
:102D1400226C5207DBB212D5282B10D122685368DB
:102D240023F4E0635360284BE362202200232363EF
:102D3400204684F83D2084F83E3003F0BAFB10BDF1
:102D4400A06B0365FFF7A7FE0028DFD023685A694C
:102D5400520605D51A69636A1A70636A013363629D
:102D64002268A06B136823F001031360202384F806
:102D74003D30C9E794F83D10602915D1202184F82D
:102D84003D1022645A69500605D51A69636A1A709F
:102D9400636A013363622268136823F001031360DA
:102DA4002046FFF734FFB1E75A69510605D51A6981
:102DB400636A1A70636A01336362204603F0A6FBF8
:102DC400A4E700BF152C00080000FFFF036830B51E
:102DD4005A68C56A90F83E100446C9B290F83D009E
:102DE40010298DB0C0B202D0402940F0B082996958
:102DF400586910F0010F07D1B5F52A0F02D0B5F1CB
:102E04002A4F52D10DB030BD95054ED5E26AB2F5C8
:102E14002A0F0CD10122E26294F83E20402A11D1FB
:102E2400226D52B9626C02F0FE021A61EAE7E26AAC
:102E3400B2F12A4FF0D10822EDE7626C42F00102B0
:102E4400D2B2F2E72269B2F5804F1BD194F83D204B
:102E5400212A626C12D102F0FE021A61626B12B96D
:102E6400A16B0029CED0D26B1AB9A26BD26B002A07
:102E7400C8D05A6842F400625A60C3E742F00102C3
:102E8400D2B2EAE7226D32B9626CD21102F00602C4
:102E940042F0F002C9E7226D012AB3D1626CD2116B
:102EA40002F0060242F0F102BFE7050703D59505DB
:102EB40001D5626CE4E7850740F1DD80950540F1BA
:102EC400DA8094F83E10E26A256B94F83D002228DB
:102ED400C9B240F0C880206D40B9402906D10190A4
:102EE4005A6901929B690193019B8BE7216D81B91A
:102EF4002069B0F5404F0CD102915A6902929A6947
:102F04000292029A1A6842F480721A60236D0133A5
:102F140028E0618D89B251B903915A6903929A6983
:102F24000392039A1A6842F400721A6019E0618DE0
:102F340089B201294AD112F5803F1CD11A6822F4C2
:102F440080621A605A6812F400620DD01A6822F482
:102F540080621A60002204925A6904929B69049365
:102F6400049B002323654DE705925A6905929A69EB
:102F74000592059AD6E7082A1CD0202A1AD0122DC9
:102F84000DD1012A16D11A6822F480621A60002237
:102F940006925A6906929B690693069BE1E7102AFA
:102FA400F1D8A04921FA02F2D007ECD51A6842F40C
:102FB4008062EBE71A6822F480621A6000220792AA
:102FC4005A6907929A690792079AABE7618D89B2A9
:102FD40002292AD1102A03D89249D140C90720D402
:102FE400196821F480611960196841F4006119605D
:102FF40059680D050DD512F5803F06D0511E1F29C5
:1030040007D8894ACA40D00703D55A6842F4805287
:103014005A60002208925A6908929B690893089B97
:103024009FE7196841F48061E1E7196841F4806120
:103034001960596809050ED512F5803F07D0013A89
:103044001F2A08D8784921FA02F2D20703D55A6810
:1030540042F480525A60002209925A6909929B698B
:103064000993099B7DE700220A925A690A929B6997
:103074000A930A9BC6E611F0040F596800F0A88071
:103084000D053FF5BFAEC0F38001000669D55505B7
:1030940067D5002968D194F83D20258D94F83E1019
:1030A400E06AD2B2C9B2C5B9212A18D1082878D0A9
:1030B400202876D010F5803F73D05A6822F4E0625D
:1030C4005A6011232363002384F83E30202384F8BC
:1030D4003D302046FFF797FD94E6212A05D040298C
:1030E4007FF490AE222A7FF48DAE628D92B21AB92B
:1030F4005A6822F48062BFE694F83E20402A26D122
:10310400226D62B9E26C012AA26C04D1D2B21A61B6
:10311400236D023326E7C2F307221A61F6E6226D15
:10312400012A02D1A26CD2B2F7E7226D022A7FF4FF
:1031340069AE94F83D20222A04D11A6842F48072C0
:103144001A605FE694F83D20212A7FF45BAE626A40
:1031540012F8011B19616262638D013B9BB26385A6
:1031640050E600293FF44EAE90057FF54BAEE16A80
:1031740094F83D20212A7FF445AE628D92B2002A54
:10318400E5D108290DD020290BD011F5803F08D0B6
:10319400596821F4E06159601123236384F83E20C7
:1031A40094E75A6822F4E0625A601A6842F40072A2
:1031B4001A6000232022236384F83D2094F83E20E3
:1031C40084F83E30402A204684D1FFF71EFD19E6DC
:1031D40009053FF517AE4506C0F380014DD55005EE
:1031E4004BD500294CD194F83D20222A7FF40AAE15
:1031F400628D92B2032A19D91A69636A1A70636AD2
:1032040001336362638D013B9BB26385638D9BB223
:10321400032B7FF4F7AD2268536823F48063536073
:10322400F0E500BF1400010081800080E06A0228FC
:103234003FF4E8AD012A3FF6E5AD1A6822F4806256
:103244001A605A6822F4E0625A601A69636A1A7052
:10325400636A01336362638D013B9BB26385202300
:1032640084F83D3094F83E3084F83E10402B68D109
:1032740021632046FFF7CAFCC4E500293FF4C2AD30
:1032840092057FF5BFADE26A608D616A80B2042861
:1032940009D15A6822F480625A601B690B70636A10
:1032A4000133636258E7608D80B203280CD15868FB
:1032B400042A20F480605860EFD0022AEDD01A6806
:1032C40022F480621A60E8E7608D80B20228E4D1BB
:1032D400012A01D0102A28D11A6822F480621A60C7
:1032E4001B690B70626A531C6362638D013B9BB262
:1032F400638523681B695370636A226801336362C0
:10330400638D013B9BB26385536823F44073536020
:10331400202384F83D3094F83E30402B4FF00003D6
:1033240084F83E300DD12363A3E7042A01D0022A96
:1033340003D11A6842F48062D1E71A6842F4007239
:10334400CDE7122323632046FFF75EFC5AE5216C88
:1033540021B35969002511F0020F29D012F4007F1E
:1033640026D0226C02B19D6994F83D2002F0280217
:10337400282A16D15A6822F480625A606FEA9501AD
:103384002B064FF0000301F0010154BFA289228BE8
:1033940084F83C30204603F069F833E59D695969A7
:1033A400D9E76FF002025A61002384F83C3029E522
:1033B400CD0640F1B180950540F1AE8094F83D50C2
:1033C4005A6822F4E0625A6000220B925A690B9206
:1033D4001A6842F001021A600B9A1A6822F4806299
:1033E4001A605A681105EDB220D505F0F702222AB9
:1033F4004AD1A06B0268526892B26285628D92B221
:103404001AB1226C42F0040222645A6822F4006267
:103414005A60FFF752FB012808D0A06B794B036573
:10342400FFF739FB10B1A06B036D9847638D9BB216
:1034340013B323685A69520709D51A69636A1A7063
:10344400636A01336362638D013B9BB263852368C6
:103454005A69500609D51A69636A1A70636A013396
:103464006362638D013B9BB26385638D9BB21BB129
:10347400236C43F004032364236C13B320460DB080
:10348400BDE83040FFF700BC606B0268526892B23E
:103494006285628D92B21AB1226C42F004022264F7
:1034A4005A6822F400625A60FFF707FB0128BDD076
:1034B400606B544B0365FFF7EEFA0028B6D0606BDF
:1034C400B2E72A2D06D12363282384F83D30204611
:1034D40003F006F894F83D30282B0CD14A4BE362F4
:1034E400202200232363204684F83D2084F83E30C4
:1034F40002F0DFFF86E4236B222B02D0222D7FF41F
:1035040081AC00232022236384F83D2084F83E30DC
:10351400204602F0E5FF75E400F0F7002128C1F32E
:10352400800535D1090627D5510525D53DBB94F82D
:103534003D10628D92B2C9B2002A3FF463AC626A54
:1035440012F8015B1D616262628D013A92B262857A
:10355400628D92B2002A7FF455AC29297FF452ACD3
:103564005A6822F480625A602823206384F83D302C
:10357400204602F0C7FF45E4002D3FF443AC950517
:103584007FF540AC628D92B2002A3FF43BACDEE59D
:10359400480627D5510525D53DBB94F83D20618DBE
:1035A40089B2D2B200293FF42DAC1969636A19704B
:1035B400636A01336362638D013B9BB26385638DF0
:1035C4009BB2002B7FF41EAC2A2A7FF41BAC22682A
:1035D400536823F48063536022232363282384F8ED
:1035E4003D3095E7002D3FF40DAC92057FF50AAC14
:1035F400628D92B2002A3FF405AC1A69636A1A70AC
:103604004DE600BF152C00080000FFFFF8B5036865
:103614005F695E68C7F30025044635B1C6F300252B
:103624001DB16FF480725A610125B90506D5F20502
:1036340042BF6FF4007245F002055A61780537D530
:10364400F10535D594F83EC0618D94F83D20206B8A
:10365400BCF1200F89B2D2B25AD1002958D102F05C
:10366400F701212903D0282A52D1212850D194F8D6
:103674003D20E16A0829D2B201D020292AD1282A82
:1036840028D12C4AE2625A6822F4E0625A606FF44C
:1036940080625A611A6822F480621A600023202230
:1036A4002363204684F83D2084F83E3002F001FF75
:1036B4003A053CD5F3053AD523686FF4006245F02A
:1036C40008055A61236C1D4325642046BDE8F84073
:1036D400FFF7DABA212A17D11649E16222632022C0
:1036E40084F83D20002284F83E205A6822F4E062E7
:1036F4005A606FF480625A611A6822F480621A6018
:10370400204602F0FFFED3E76FF480625A61CFE7F0
:103714006FF480625A6194F83E20102A04BF1A683C
:1037240042F4007245F0040508BF1A60C0E7002D9A
:10373400C8D1F8BD0000FFFFF0B504468BB060B3FC
:1037440090F8BD33056803F0FF021BB980F8BC2371
:1037540003F0ECFF032384F8BD33EB6B254613F42D
:10376400807355F8100B08BF236101F02DFE0FCDB7
:103774006E460FC60FCD0FC695E8030086E803001A
:103784002546271D97E80E0055F8100B01F062FD41
:10379400064620B1022384F8BD33012554E00146D6
:1037A400206801F017FE3046D4F804C01C264FF000
:1037B400010E0146C2B2944500F101001CD8002359
:1037C4001C261946D8B2844503F1010322D80FCD33
:1037D4006E460FC60FCD0FC695E8030086E80300BA
:1037E40097E80E00206801F037FE01230546F0B18A
:1037F400022284F8BD23D0E706FB0243C3E911117A
:1038040083F83DE083F83C20A3F8422083F83F107E
:103814001965CFE706FB0042C2E9811182F8FD1168
:1038240082F8FC0182F8FF11C2F81012CAE784F88A
:10383400380084F8BD33636A012B02D1204600F0BE
:103844005AFC206802F032F928460BB0F0BD10B5DE
:103854000446006894F8BC33012B15D0012384F886
:10386400BC33A36A012B06D1A369012B1EBF836B52
:1038740043F48033836302F00DF9206801F09EFD68
:10388400002084F8BC0310BD0220FCE72DE9F04FB2
:10389400066887B00446304602F043F902900028D7
:1038A40040F03C81206802F00DF9002800F03681D8
:1038B400206802F007F9830748BF2268206842BFE6
:1038C400536903F00203536102F0FCF8070300F1AB
:1038D4002881206802F0F6F845030CD5206802F030
:1038E400FDF82546834606F5106A4FF00009BBF142
:1038F400000F40F0D781206802F0E4F8002815DAC0
:10390400D6F8043823F00103C6F8043894F8F433E5
:10391400012B40F05C82002184F8F413204600F06F
:10392400FDFB2268536903F000435361206802F0F1
:10393400C9F805050BD5D6F80838D80702D52046AE
:1039440003F0B8FF2268536903F4006353612068ED
:1039540002F0B8F8010114D523685A6902F0006234
:103964005A6194F8F423002A40F035825B6D0121FA
:10397400C3F3830384F8F413C4F8F833204600F047
:10398400CDFB206802F09EF8C20435D506F500652B
:103994006B68206823F001036B60102101F032FD95
:1039A400606806F510634FF67F31029A904240F04A
:1039B4001682EB6943F00113EB61236B002B00F0DB
:1039C4002082D5F8843043F00B03C5F884306B6C47
:1039D40043F00B036B64D6F80038217C206823F491
:1039E400FE63C6F8003804F5717202F0B9F8226873
:1039F400536903F480535361206802F063F883042D
:103A040016D5206802F091F8206801F0E1FDE0602D
:103A1400256800F059FC227B0146284601F05AFC37
:103A2400204603F036FF2268536903F400535361C0
:103A3400206802F047F8C7062AD52268936923F064
:103A440010039361356AC5F34343022B05F00F0756
:103A540040F0E28147F6F0731D4214D01C2303FBAF
:103A64000747C5F30A152A46D7F80812304601F06D
:103A74009FFFD7F808322B44C7F80832D7F814321E
:103A84001D44C7F814522268936943F010039361EC
:103A9400206802F017F8060707D5204603F0F5FE64
:103AA4002268536903F008035361206802F00AF89E
:103AB400C50208D50021204603F032FF226853696D
:103AC40003F480135361206801F0FCFF800208D5E1
:103AD4000021204603F020FF2268536903F40013F9
:103AE4005361206801F0EEFF410007D5204603F042
:103AF4001BFF2268536903F080435361206801F07F
:103B0400E1FF42070AD523685D686B0702D52046AA
:103B140003F00EFF226853682B43536007B0BDE8DF
:103B2400F08F2068DFF814B301F0D0FF06F530659C
:103B3400824604F501780027BAF1000F3FF4C9AEBC
:103B44001AF0010F00F0A780FAB211462068039220
:103B540001F0CCFF10F0010F8146039A4CD00123F1
:103B6400AB6023682069D3F840C003F5306303EBEE
:103B740047130128996854D1080714D5DC4504D9A2
:103B84000A0444BF4FF400429A602046039303F0B2
:103B940065FE04F571720121206801F0E1FF039BC9
:103BA40008229A6028E0880601D52022F9E711F05E
:103BB400280F21D1DC4504D9090402D54FF4004271
:103BC400EFE71B69D8F80010C3F31203CB1AC8F847
:103BD4001030D8F804301944C8F8041020461146AF
:103BE40003F042FE47B9D4F810322BB904F57172D0
:103BF4000121206801F0B4FF19F0080F33D02368C5
:103C040020691A6C03F5306303EB471301289968A4
:103C140015D15A4516D9090444BF4FF4004199609F
:103C240010E08548844505D10804C7D4880644BFFC
:103C3400202199601146204603F016FEDCE77E48F9
:103C44008242E8D02046039203F008FE039A5A45C4
:103C540007D92169012904D104F57172206801F0A2
:103C64007FFF0823AB6019F0100F1CBF1023AB605B
:103C740019F0200F09D02169012904D104F57172CA
:103C8400206801F06DFF2023AB6019F4005F1CBFB6
:103C94004FF40053AB6001374FEA5A0A203508F15C
:103CA4001C0849E71BF0010F00F089805FFA89F3D3
:103CB40019462068039301F022FFC307074624D561
:103CC400D6F834380399012009F00F0200FA02F201
:103CD40023EA0203C6F834382369CAF80800834289
:103CE40002BFD5E911239B18AB64204603F0C5FD40
:103CF4002169012909D1B9F1000F06D1236D23B936
:103D040004F57172206801F02BFF380744BF0823C3
:103D1400CAF80830F90644BF1023CAF808307A06F6
:103D240044BF4023CAF80830BB0744BF0223CAF883
:103D340008303F0643D5D5E91473BB423FD8FF1A78
:103D44006B6C226804929F4228BF1F4602F51063E1
:103D5400033703EB4913BF080593059B996989B29F
:103D6400B942D5E9143228D3934200D963B9049BEC
:103D740009F00F01D3F83428012000FA01F122EAF6
:103D84000102C3F834281AE0A3EB02086B6C039A0F
:103D94000498984528BF9846237C0093A96C1FFA81
:103DA40088F301F007FDAB6C4344AB646B6D08F121
:103DB40003074344BF086B65CFE79342D7D909F1A2
:103DC40001094FEA5B0B1C350AF1200A8FE52046F6
:103DD40003F088FDA5E5204603F06CFDD1E599606C
:103DE4001A6822F400121A60C3F80812D3F80022E9
:103DF40022F40012C3F80022029A01320292203304
:103E0400D3E56B6943F4005343F02B036B612B69D7
:103E140043F00B032B61DEE5062B7FF434AE08225E
:103E240004F57171304601F0C3FD1C2303FB074701
:103E3400C5F30A1522E600BF0A31544F0A30544F25
:103E440090F8BC23012A10B504460BD0012280F857
:103E5400BC2384F83810006801F00CFE002084F8BC
:103E6400BC0310BD0220FCE770B501F00F05044649
:103E740011F0800FC5EBC5004FEA80004FF01C061F
:103E84001FD006FB054600F13C010120214486F8C1
:103E94003D008A604A780D70CB7002B1CD80022B50
:103EA40004BF00230B7194F8BC33012B12D00123FF
:103EB40084F8BC33206801F096FB002084F8BC032E
:103EC40070BD06FB054600F5FE710020214486F80E
:103ED400FD01DEE70220F3E710B5044601F00F0010
:103EE400C0EBC00311F0800F4FEA83034FF01C02B4
:103EF40016D002FB004203F13C010123214482F865
:103F04003D30087094F8BC33012B12D0012384F89F
:103F1400BC33206801F0A6FB002084F8BC0310BD6C
:103F240002FB004203F5FE710023214482F8FD31B7
:103F3400E7E70220F3E738B501F00F051C2404FB82
:103F4400050104FB050401F5FE71C4F810320023D9
:103F5400C4F80822C4F8143284F8FD3184F8FC5102
:103F640003690068012B08BFC4F80C22DAB21DB93A
:103F740001F0A8FB002038BD01F030FCFAE71C2357
:103F840001F00F0103FB0101D1F81402704738B5A9
:103F940001F00F051C2404FB050104FB05043C315E
:103FA4002365002363650123A26484F83D3084F80B
:103FB4003C5003690068012B08BFE264DAB21DB902
:103FC40001F080FB002038BD01F008FCFAE738B5A9
:103FD400436801F00F059D4204462ED811F0800F6E
:103FE4004FF01C021FD002FB050102FB0503012256
:103FF4003C3381F83D2001229A701D7094F8BC1363
:1040040091421CD084F8BC231946206801F0DEFCE0
:104014002DB904F57172217C206801F0A1FD002006
:1040240084F8BC0338BD02FB010302FB010100223A
:1040340003F5FE7381F8FD21DDE70120F2E702209C
:10404400F0E738B5436801F00F029A4204462AD8D3
:10405400C2EBC20311F0800F4FEA83034FF01C0040
:1040640018D000FB024003F13C010123214480F8F5
:104074003D3000258D700A7094F8BC33012B14D0A8
:10408400012384F8BC33206801F0CBFC84F8BC53D2
:10409400284638BD00FB024003F5FE71002321448D
:1040A40080F8FD31E5E70120F3E70220F1E700683D
:1040B40070B51204446A19B922438262002070BDAB
:1040C400836A4D1E04EB134400235E1CDBB29D4245
:1040D40005D83F3100EB810022434260EEE74033D4
:1040E40000EB83035B6804EB13443346EDE703689A
:1040F400002059627047026803460121C0F8FC138E
:10410400002083F8F403936943F000639361536DD3
:1041140043F0805343F00303536570477047000036
:1041240037B500230193184B184C1A6C42F0805297
:104134001A641B6C03F080530193019B144B0122FE
:104144001A60FEF7E1FB05466368DA030BD5114BF1
:104154000E4C01221A60FEF7D7FB054663689B03E9
:104164000AD5002006E0FEF7CFFB401BB0F57A7FAE
:10417400EAD9032003B030BDFEF7C6FB401BB0F5FF
:104184007A7FEBD9F5E700BF0038024000700040A9
:1041940040000E4244000E422DE9F0410D46044613
:1041A40010B90120BDE8F081434B1A6802F00F02F8
:1041B4008A4227D3226897072CD4D00740D43E4B99
:1041C4001A6802F00F02AA4265D8226851076BD41C
:1041D400130707D5394A2169936823F4604343EAF6
:1041E400C103936000F0A0FA344B354A9B68C3F3D3
:1041F4000313D35CD840334B18600020FEF73AFB1E
:104204000020CFE7CAB21A701B6803F00F038B4279
:10421400C7D1CFE7294B12F0040F1EBF996841F4B0
:10422400E0519960160742BF996841F46041996072
:104234002249A0688B6823F0F00303438B60BCE73A
:1042440062681E4B012A1CD11B6813F4003FA8D0DE
:104254001A4EB36823F003031343B360FEF754FB11
:1042640041F288380746B368626803F00C03B3EB85
:10427400820FA4D0FEF748FBC01B4045F3D90320AE
:1042840090E7911E01291B6802D813F0007FDEE736
:1042940013F0020FDBE7EAB21A701B6803F00F0396
:1042A400AB427FF47EAF90E70449E0688B6823F467
:1042B400E05303438B608BE7003C0240003802402C
:1042C4002098000828000020014B1868704700BFA0
:1042D40028000020044B054A9B68C3F38223D35C67
:1042E400034A1068D84070470038024030980008EC
:1042F40028000020044B054A9B68C3F34233D35C77
:10430400034A1068D84070470038024030980008CB
:104314002800002003682DE9F74313F00106044642
:104324000BD0AB49866BD1F88C2022F0C0623243AB
:10433400B6FA86F6C1F88C2076099D070BD5A448F9
:10434400E16BD0F88C2022F0C0520A430029C0F857
:104354008C2008BF012613F0040512D09C49256B5C
:10436400D1F88C20B5F5801F22F4401242EA0502F0
:1043740018BFB5FA85F5C1F88C2012BF6D09002568
:10438400012618070FD59248616BD0F88C2022F4CF
:1043940040020A43B1F5800FC0F88C2000F00B8175
:1043A400002908BF0125990633D500230193884BC2
:1043B400884F1A6C42F080521A641B6C03F08053CD
:1043C4000193019B3B6843F480733B60FEF79CFAC6
:1043D40080463B68DA0540F1F0807D4F3B6F13F473
:1043E400407340F0FD80236C03F44072B2F5407FCB
:1043F400774A40F01881916823F0704021F4F81155
:1044040020F4407001439160116FC3F30B030B431D
:1044140013672368D90642BF6F4B94F858201A607B
:1044240023681A0608D56A49E06CD1F8942022F46E
:1044340040020243C1F894205F0608D56449A06C89
:10444400D1F8942022F080620243C1F89420D80568
:104454000CD55F48616DD0F8942022F000620A43C5
:10446400B1F1006FC0F8942008BF0125990508D563
:104474005749606CD1F8942022F080520243C1F86D
:1044840094205A0500F1D380012E40F0DE80534E73
:10449400DFF83C8100233360FEF736FA4746814655
:1044A400D8F800301B0100F124812268D00701D51F
:1044B400A36B1BB1910714D5E36B93B9D7F8843080
:1044C400D7F8841003F4403301F070610B43616842
:1044D4000B43A16843EA8113616943EA0173C7F896
:1044E4008430530703D5236BB3F5801F05D017071A
:1044F40020D5636BB3F5800F1CD13549D1F88430D6
:10450400D1F8840003F4403300F0E04003436068D2
:104514000343A06843EA8013206943EA0063C1F8B7
:104524008430D1F88C00A36A20F01F00013B0343C0
:10453400C1F88C3050051BD5236DB3F1005F17D142
:1045440023486768D0F88410D0F8843003F0E0433F
:104554003B43A768C1F30141013143EA871343EAAE
:104564004163E1684908013943EA0143C0F88430F2
:10457400110511D52369A2681B0643EA82136268F8
:104584001343626943EA0273E2685208013A43EA58
:1045940002430F4AC2F8843001233360FEF7B4F9B2
:1045A4000B4E074633681A0153D4FEF7ADF9C01B0E
:1045B4000228F7D908E00126F5E6FEF7A5F9A0EBF5
:1045C400080002287FF605AF032003B0BDE8F0839E
:1045D4000038024000700040E01147426800474242
:1045E400226C02F4407293423FF4FDAE3B6F4B4A9F
:1045F4000121116023F44073002111603B673B6F7C
:10460400DB077FF5F0AEFEF77FF941F2883980468B
:104614003B6F98073FF5E7AEFEF776F9A0EB08008D
:104624004845F5D9D0E7916821F4F811EBE63C4808
:10463400216DD0F8942022F000520A43B1F1005FBA
:10464400C0F894207FF420AF21E7B3F5006F3FF466
:104654001EAF012D4BD1334D314F00232B60FEF79C
:1046640053F93E4680463B689B004AD42268500773
:1046740001D5236B1BB1110719D5636BBBB9D6F8F0
:104684008830A16903F440330B43E16943EA8113A1
:10469400616A43EA0163C6F88830D6F88C30E16A6F
:1046A40023F4F853013943EA0123C6F88C30D205C8
:1046B40014D5636DB3F1006F10D11949A269D1F813
:1046C400883003F070631343E26943EA8213226A79
:1046D4005208013A43EA0243C1F8883001232B60AF
:1046E400FEF712F90E4C054623689B0010D50020F6
:1046F4006BE7FEF709F9A0EB090002287FF6D0AEBC
:1047040062E7FEF701F9A0EB08000228ABD95BE7EA
:10471400FEF7FAF8401B0228E6D955E7400E474257
:104724000038024070004742204908B58B6803F006
:104734000C03082B07D00C2B20D01D481D4A042B3A
:1047440018BF104608BD4A684B68496813F48003D3
:1047540014BF17481748C1F3881118BF002302F08B
:104764003F02A1FB0001FCF729F9104B5B68C3F37E
:10477400014301335B00B0FBF3F0E3E74A684B68A5
:10478400496813F4800314BF09480A48C1F3881127
:1047940018BF002302F03F02A1FB0001FCF70EF951
:1047A400024B5B68C3F30273E5E700BF00380240C5
:1047B40000127A000024F40003682DE9F341DF07B6
:1047C400044610D423689E0763D423681A0700F1B3
:1047D400AD8023685B0700F1CB80A269002A40F01A
:1047E400378100201DE0964B9A6802F00C02042ADF
:1047F4000FD09A6802F00C02082A02D15A685502B6
:1048040007D49A6802F00C020C2A0DD15B68580296
:104814000AD58B4B1B689903D4D56368002BD1D17F
:10482400012002B0BDE8F0816368854DB3F5803F97
:1048340011D12B6843F480332B60FEF765F8804D6B
:1048440006462B689A03BDD4FEF75EF8801B6428E5
:10485400F7D90320E5E7B3F5A02F04D12B6843F47F
:1048640080232B60E5E72A6822F480322A602A68D4
:1048740022F480222A60002BDFD1FEF745F8064699
:104884002B689B039ED5FEF73FF8801B6428F7D95D
:10489400DFE76B4B9A6812F00C0F0FD09A6802F0A6
:1048A4000C02082A02D15A68570207D59A6802F006
:1048B4000C020C2A11D15B685E020ED4604B1A689C
:1048C400950702D5E268012AAAD11A68216922F063
:1048D400F80242EAC1021A6077E7E268594BB2B1C2
:1048E40001221A60FEF710F8554D06462B6898070A
:1048F40007D52B68226923F0F80343EAC2032B602F
:1049040063E7FEF701F8801B0228EFD9A1E71A60DC
:10491400FDF7FAFF4A4D06462B6899077FF555AF18
:10492400FDF7F2FF801B0228F6D992E76269464B35
:104934007AB101221A60FDF7E7FF414D06466B6F1D
:104944009F073FF546AFFDF7DFFF801B0228F6D92E
:104954007FE71A60FDF7D8FF394D06466B6F98075D
:104964007FF537AFFDF7D0FF801B0228F6D970E73B
:10497400334B1A6C12F080521DD101921A6C42F022
:1049840080521A641B6C03F080530193019B01262F
:104994002E4D2B68D90510D5A368294D012B1CD1A8
:1049A4002B6F43F001032B67FDF7AEFF244F8046C6
:1049B40041F2883537E00026EAE72B6843F4807338
:1049C4002B60FDF7A1FF07462B68DA05E4D4FDF759
:1049D4009BFFC01B0228F7D93BE7052B04D12B6FA3
:1049E40043F004032B67DBE72A6F22F001022A67F6
:1049F4002A6F22F004022A67002BD5D1FDF784FF29
:104A040041F2883807462B6F98070FD5FDF77CFFD6
:104A1400C01B4045F7D91CE7FDF776FFA0EB080063
:104A2400A8423FF616AF3B6F9B07F5D5002E3FF427
:104A3400D4AE034A136C23F080531364CDE600BF55
:104A44000038024000004742800E47420070004098
:104A5400234DAB6803F00C03082B3FF4E1AE214E69
:104A64000023022A33602DD1FDF74EFF07462B6841
:104A7400990121D4D4E907321343626A43EA8213C9
:104A8400E26A43EA0263226B43EA0273A26A144CA9
:104A94005208013A43EA02436B6001233360FDF795
:104AA40033FF054623689A013FF59BAEFDF72CFFC3
:104AB400401B0228F6D9CCE6FDF726FFC01B0228CE
:104AC400D5D9C6E6FDF720FF04462B689B017FF588
:104AD40088AEFDF719FF001B0228F6D9B9E600BF1E
:104AE40000380240600047420368DA68D20510B516
:104AF40004460AD59B68D90407D501F025FA226833
:104B0400D368DBB263F4C073D3602368DA689205B8
:104B14000BD59B689B0408D5204600F00FF822684B
:104B2400D368DBB263F42073D360034B4FF40032D9
:104B34005A610123637710BD003C01407047F8B50A
:104B440004460E4615461F4621688A6836EA020363
:104B540001D000202DE06B1CF7D0FDF7D5FEC01B63
:104B64008542F1D823685A6822F0E0025A606268EC
:104B7400B2F5827F0AD1A268B2F5004F02D0B2F535
:104B8400806F03D11A6822F040021A60A26AB2F55B
:104B9400005F07D11A6822F400521A601A6842F4BE
:104BA40000521A60012384F85130002384F85030F5
:104BB4000320F8BD73B51346124A134E15684268B4
:104BC400B5FBF6F64FF47A757543B2F5827F044669
:104BD40001950BD10A468021FFF7B1FF78B1636DCF
:104BE40043F020036365032002B070BD019B33B121
:104BF400019B013B019323689B681B06F6D40020AC
:104C0400F2E700BF2800002000366E01704710B59F
:104C14000446002836D00023836290F8513003F014
:104C2400FF021BB980F85020FFF7F0FF2168A2694A
:104C3400022384F851300B6823F040030B60D4E95D
:104C440001300343E068034320690343606903437D
:104C5400E0690343206A0343A06A034302F400703B
:104C640003430B60120C636A02F004021A434A60A5
:104C7400CB6923F40063CB6100200123606584F8D1
:104C8400513010BD0120FCE72DE9F7431E4690F892
:104C940050300A9F012B04460D46914600F0DE80F9
:104CA400012380F85030FDF72FFE94F851306168ED
:104CB400DBB2012B80460AD0B1F5827F40F0CC8074
:104CC400A068002840F0C880042B40F0C580002D67
:104CD4003FD0B9F1000F3CD0002E3AD094F85130B7
:104CE400C4F83890042B1CBF052384F851300023EA
:104CF4006365C4E910332368E687E6861A68A687E5
:104D0400500658BF1A68256358BF42F04002A68671
:104D140058BF1A60E268B2F5006F50D109B1012E94
:104D240007D135F8022BDA60E38E2563013B9BB291
:104D3400E3860125E38E9BB26BB9E38F9BB253B933
:104D4400424639462046FFF735FF002879D0202314
:104D5400636501202AE02268936899070DD5E38EE4
:104D64009BB253B14DB1236B33F8021BD160236363
:104D7400E38E013B9BB2E38600259368DB070CD5E9
:104D8400E38F9BB24BB1A36BD26823F8022BA363CE
:104D9400E38F013B9BB2E3870125FDF7B5FDA0EB53
:104DA4000800B842C6D37E1CC4D00320012384F873
:104DB4005130002384F8503003B0BDE8F08309B1CA
:104DC400012E08D12A781A73236B01332363E38EEF
:104DD400013B9BB2E3860125E38E9BB21BB9E38FB3
:104DE4009BB2002BACD02268936898070ED5E38E53
:104DF4009BB25BB155B1236B1B781373236B0133E7
:104E04002363E38E013B9BB2E3860025226893680B
:104E1400D9070DD5E38F9BB253B1A36BD2681A7037
:104E2400A36B0133A363E38F013B9BB2E3870125AB
:104E3400FDF76AFDA0EB0800B842CDD37B1CCBD0B4
:104E4400B3E7A368002BB1D123680190DA6801921B
:104E54009B680193019BA9E70220A7E70220ABE727
:104E64007047704703681A69910710B504460ED558
:104E7400DA6892070BD56FF002021A619B6901226E
:104E84009B07027777D003F0EFF80023237723689A
:104E94001A69500710D5DA6851070DD56FF004026E
:104EA4001A619B69022213F4407F2277204668D05E
:104EB40003F0DAF80023237723681A6912070FD561
:104EC400DA6810070CD56FF008021A61DB69042256
:104ED4009907227720465AD003F0C6F80023237797
:104EE40023681A69D20610D5DA68D0060DD56FF09A
:104EF40010021A61DB69082213F4407F22772046EE
:104F04004BD003F0B1F80023237723681A69D10743
:104F140008D5DA68D20705D56FF001021A61204678
:104F240003F0A6F823681A69100608D5DA68110692
:104F340005D56FF080021A61204600F036F8236828
:104F44001A69520608D5DA68500605D56FF0400292
:104F54001A612046FFF785FF23681A69910622D556
:104F6400DA6892061FD56FF0200220461A61BDE868
:104F7400104000F019B803F079F82046FFF770FFED
:104F840083E703F073F82046FFF76AFF92E703F024
:104F94006DF82046FFF764FFA0E703F067F82046AA
:104FA400FFF75EFFAFE710BD704770470368DA682C
:104FB40022F49072DA605A6922F001025A612023C5
:104FC40080F83A30704790F83930202B18D1A9B1C5
:104FD400A2B190F83830012B12D0C28401628284CD
:104FE40000230168C363212280F83920CA6880F84D
:104FF400383042F08002CA6018467047012070477A
:105004000220704790F83A30202B20D1E9B1E2B168
:1050140090F83830012B1AD0C285828500232222D1
:10502400C36380F83A2002688162D16880F838301E
:1050340041F48071D160516941F001015161D1683D
:1050440041F02001D16018467047012070470220CA
:10505400704790F83A30222B10B533D18168046937
:10506400836A0268B1F5805F23D15268ECB9C2F358
:10507400080223F8022B8362C48D013CA4B2C485C8
:105084008CB90368DA6822F02002DA60DA6822F464
:105094008072DA605A6922F001025A61202380F892
:1050A4003A3001F0A5FA00200DE0D2B223F8012B2A
:1050B400E1E7591C526881620CB91A70DCE702F00E
:1050C4007F02FAE7022010BD03681A68D96870B538
:1050D400160704465D6907D1960659D58D0657D53E
:1050E400BDE87040FFF7B5BF05F0010001F490750D
:1050F40005434DD0D60705D5CD0542BFE36B43F03C
:105104000103E363530704D518B1E36B43F00203CF
:10511400E363960704D518B1E36B43F00403E36338
:10512400150704D518B1E36B43F00803E363E36B9D
:105134004BB3900604D5890602D52046FFF789FFB4
:1051440023685B69E56B03F0400305F008051D4324
:10515400204619D0FFF72AFF23685A6952060FD553
:105164005A69606B22F040025A6148B1254B0365CD
:10517400FDF791FC38B1606BBDE87040036D1847D2
:10518400204601F04EFA70BD01F04BFAE563FAE7F0
:10519400160628D50D0626D594F83920212AF2D1F1
:1051A400A168226AB1F5805F18D11188C1F30801A2
:1051B4005960216981B902322262E28C013A92B2C9
:1051C400E284002ADFD1DA6822F08002DA60DA6849
:1051D40042F04002DA60D6E70132EDE7511C216269
:1051E40012785A60E9E75006CDD54A06CBD5DA687D
:1051F40022F04002DA60202384F83930204601F09E
:10520400FDF9C0E70D52000808B5806B0023C38583
:10521400C38401F006FA08BD90F8392090F83A00EA
:10522400104370470A4B013B0FD00269002AFADA97
:105234000369074A43F001030361013A05D0036996
:1052440013F00103F9D1184670470320704700BFDB
:10525400410D030084B038B505AD85E80E000A9B06
:10526400012B044625D1836B23F480338363C36805
:1052740023F4840323F04003C360C36823F440137E
:10528400C360119B012B02BFC36843F48013C36046
:10529400FFF7C8FF089B012B07D1A36843F006035F
:1052A400A360A36843F02003A360BDE8384004B0C2
:1052B4007047C36843F04003C360FFF7B3FF0E9B1E
:1052C40023B9A36B43F48033A363E3E7A36B23F411
:1052D4008033F9E7022A58D12E4B2F4A0B449342CC
:1052E40047D92E4B2E4A0B44934244D9A1F574035B
:1052F4002C4AA3F5105393423FD9A1F1837302F5CD
:10530400C332A3F5E743A032934238D9264B274A48
:105314000B44934235D9264B02F592220B4402F5F5
:10532400787293422FD9234B02F5C3220B4402F522
:105334002072934229D9A1F1B77302F5B712A3F5EC
:10534400585302F55872934221D91B4B02F512228D
:105354000B4402F5F862934294BF07230623C26804
:1053640022F47052C260C26842EA8323C360002000
:1053740070470F23F3E70E23F1E70D23EFE70C2328
:10538400EDE70B23EBE70A23E9E70923E7E7082323
:10539400E5E700BF405327FFFF340C00401E1BFF0E
:1053A4003F420F007F4F120060B6E5FE5FE3160038
:1053B40000D3CEFEC05BB3FEE05459FE836843F0D5
:1053C4000103836000207047836823F00103836036
:1053D4000020704708B5C368012923F0C043C360A7
:1053E40008D1C36843F00053C3603220FDF792FA3A
:1053F400002008BD19B9C36843F08043F4E70120D5
:10540400F7E70000890141F02001064A0161013AF1
:1054140005D0036913F02003F9D11846704703201F
:10542400704700BF410D03001023064A0361013A8F
:1054340005D0036913F01003F9D11846704703200F
:10544400704700BF410D0300D0F800381943C0F87D
:10545400001800207047000084B02DE9F04704468E
:1054640009A880E80E0000230C9F139E8846194665
:1054740003F1400204EB820201330F2B5160F7D198
:10548400A36B002E72D123F40013A363236843F0AB
:1054940040032360236843F0800323600023C4F89F
:1054A400003ED4F80038C4F800380E9B012B04F5F4
:1054B400006561D10B9900295CD12046FFF7C4FF38
:1054C40010212046FFF79EFF01462046FFF7ACFF60
:1054D4000843C0B2002300302B6118BF01206B6168
:1054E40004F51062EB6119464FF0904C4FF0006EDA
:1054F4004FF67F39434541D1002204F5306311460C
:105504004FF0904C4FF0006E4FF67F39424548D132
:105514002B69012F23F480732B6107D12A4B2B6352
:105524002B6B43F4803343F003032B630023A36109
:105534006FF0804363611FB9A36943F01003A36153
:10554400A269224B1343A3610F9B1BB1A36943F0D0
:105554000803A361012E01BFA36943F0804343F014
:105564000403A361BDE8F04704B0704743F400139B
:10557400A36393E71946A0E703219EE7D2F800A0AE
:10558400BAF1000F0BDA3BB9C2F800E01161013344
:10559400C2F808902032ADE7C2F800C0F6E7116007
:1055A400F4E7D3F800A0BAF1000F0BDA3AB9C3F864
:1055B40000E019610132C3F808902033A6E7C3F86C
:1055C40000C0F6E71960F4E70001800000383C8071
:1055D400D0F8083813F0060004D013F0020F14BFFB
:1055E40002200F20704770B50E78012506F00F03D6
:1055F4009D404B7800F50064012B00EB4610E369F5
:1056040018D11D43E561D0F800391A0410D48A6812
:10561400D0F80039C2F30A021A43CB7842EA834332
:1056240043EA865343F0805343F40043C0F80039FF
:10563400002070BD43EA0545E561D0F8003B1B043A
:10564400F6D48B68D0F8002BC3F30A031343CA784B
:1056540043EA824343F0805343F40043C0F8003BE1
:10566400E6E7000030B50C78497800F5006204F0F4
:105674000F050123012903FA05F300EB4410D16B54
:105684000DD1DB431940D163D1690B40D361D0F80C
:1056940000290A4B1340C0F80039002030BD6FEADE
:1056A40003431940D163D1690B40D361D0F8002B77
:1056B400034B1340C0F8003BEFE700BF007833EC26
:1056C4000078F3EF4B78DFF8E8C0F0B50E784D6959
:1056D400364F012B00EB461446D104F51063BDB9D7
:1056E4001D692F401F611D6945F400251D611D6959
:1056F40005EA0C05012A1D6123D10A6902B15A6128
:10570400D4F8003943F00443C4F800390020F0BD54
:10571400D3F810E00EEA0C0CC3F810C0D3F810C094
:105724000CEA07071F618F68AF421D6938BF4F61DC
:1057340045F400251D614D691F69C5F312053D43FC
:10574400D8E7D4F8003943F00443C4F800394B696E
:10575400002BDBD0D0F8342806F00F060123B34029
:105764001343C0F83438D1E704F53063186900EA0C
:105774000C001861186938401861886805B14861DF
:105784001D6945F400251D611D69C0F312002843FD
:10579400012A186102D1CA6802B15A61D4F8003BE7
:1057A40043F00443C4F8003BB0E700BFFFFF07E049
:1057B4000000F8FF10B59DF8084044B903330132E6
:1057C4009B0800EB023001EB83038B4201D10020E4
:1057D40010BD51F8042B0260F7E700002DE9F341F6
:1057E4004D780F784B69CE78DFF8B8C1DFF8B8E1AF
:1057F400012D00EB471440F08E8004F51065D5F8B8
:1058040010806BBB08EA0C0CC5F810C0D5F810C0AA
:105814004CF4002CC5F810C0D5F810C00CEA0E0EDC
:10582400C5F810E0012A4ED10B6903B16B61012E5A
:105834000CD1D0F8083813F4807FD4F800390CBFA9
:1058440043F0005343F08053C4F80039D4F80039CE
:1058540043F00443C4F80039002002B0BDE8F081ED
:1058640008EA0E0EC5F810E0D5F810E00EEA0C0CAC
:10587400D1F808E0C5F810C00EEB030C0CF1FF3CA6
:10588400BCFBFEFEDFF824C1D5F810800CEACE4C38
:105894004CEA080CC5F810C0D5F810E0C3F3120C9C
:1058A4004CEA0E0C012EC5F810C0BBD1D5F810C0BF
:1058B4002CF0C04CC5F810C0D5F810C04CF0005CFA
:1058C400C5F810C0AEE7D4F80059012E45F00445E0
:1058D400C4F800590BD0002BBED0D0F8343807F0F0
:1058E4000F02012797401F43C0F83478B4E7D0F87B
:1058F400085815F4807FD4F800590CBF45F00055C2
:1059040045F08055C4F8005900929BB23A46C968E4
:10591400FFF750FFA0E704F530673D6905EA0E057F
:105924003D613D6905EA0C053D618D681BBB3B6922
:10593400C5F312051D433D613B6943F40023012A6D
:105944003B6102D1CB6803B17B61012E0CD1D0F84D
:10595400083813F4807FD4F8003B0CBF43F00053A5
:1059640043F08053C4F8003BD4F8003B43F00443B5
:10597400C4F8003B70E7DFF834C0D7F810E02B44DC
:10598400013BB3FBF5F30CEAC34C4CEA0E0CC7F82D
:1059940010C09BB2D7F810C06B43C3F3120343EAA1
:1059A4000C03CCE7FFFF07E00000F8FF0000F81F3E
:1059B4000332920801EB820200F58050914201D13A
:1059C40008467047036841F8043BF7E74A780B78C8
:1059D400012A00EB431012D1D0F80029002A06DB7B
:1059E4002BB1D0F8003923F08043C0F80039D0F847
:1059F400003943F40013C0F8003900207047D0F890
:105A0400002B002A06DB2BB1D0F8003B23F08043A7
:105A1400C0F8003BD0F8003B43F40013C0F8003B4F
:105A2400EBE70B784A7800EB4310CB78012AA3F11B
:105A34000203DBB20FD1D0F80029012B22F40012AB
:105A4400C0F8002905D8D0F8003943F08053C0F8D5
:105A5400003900207047D0F8002B22F40012012BEB
:105A6400C0F8002B9EBFD0F8003B43F08053C0F831
:105A7400003BEEE7D0F8003823F4FE63C0F80038AA
:105A8400D0F80038090101F4FE611943C0F8001888
:105A94000020704708B5D0F8043823F00203C0F89A
:105AA40004380320FCF736FF002008BD08B5D0F801
:105AB400043843F00203C0F804380320FCF72AFF3B
:105AC400002008BD4269806910407047D0F818383A
